:400000000080002011000000E5180000E518000008B5044B1A6803F53F5302331A6001F069FC00BFFA46004010B5054C237833B9044B13B10448AFF300800123237010BD17
:400040005882FF1F00000000B42D0000084B10B51BB108490848AFF300800848036803B910BD074B002BFBD0BDE81040184700BF000000005C82FF1FB42D0000C880FF1F1E
:400080000000000008B5002001F070FE08BD00BF684620F007018D4619B572B6EFF311841E4B1B68DBB20F2B10D9103B23F0030202F1604202F564421168DB0003F01803E7
:4000C000E0229A400A4022FA03F306E00F2B03D1134B1B681B0E00E0002383F31188114A136801331360012B01D102F07FFC62B6FFF7C8FF72B684F3118802F03BF8094A4B
:400100001368013B13601BB902F079FC02F03DFC62B6BDE819408546704700BF04ED00E020ED00E0F896FF1F08B562B645F6BF52054B1A60054A136843F0020313600020EE
:4001400002F05AF9FBE700BF14E000E010E000E008B50F4800F044FE0E4800F09BFE0E4800F098FE0D4800F0BBFE0D4801F0EAF902F042FA0B4A136843F0050313600220FF
:4001800001F042FC012001F03FFC02F07BF908BD4491FF1F7490FF1FE492FF1FB493FF1F9C83FF1F10E000E0FEE700BF10B5DEB000235D93012001F0FFFE5DA9022001F04B
:4001C0005BFE5D9801F02AFE5D9B13F0010FF1D00DF10701364800F073FE002841D19DF90730022B10D1324800F074FE314800F071FE314801F0A6F9304802F083FA01210C
:40020000022001F059FED5E7002BD3D1002001F0BBFF2BA92A4800F01DFE0446002002F059F9CCB9274C2BA9204600F067FE204600F06EFE68B921461F4801F0DBF820B92A
:4002400001211C4800F02CFE06E01F4802F05AFA02E01E4802F056FA0121022001F02CFEA8E70DF10701134800F02AFE0028A1D19DF90730012B16D1012001F085FF02A99F
:400280000D4801F02DF90446012002F023F91CB902A801F029F906E00D4802F033FA0221034800F0FDFD0121022001F005FE81E77490FF1FE492FF1F9C83FF1FB82D00009D
:4002C0004491FF1FB493FF1FE02D0000F82D0000102E000008B50E4800F0A0FD012808D100210C4800F0DCFD0121022001F0E4FD08BD10F1080F0AD1054800F085FD0221A6
:40030000044800F0CDFD0121022001F0D5FD08BD4491FF1F7490FF1F684620F007018D4619B572B6EFF311841E4B1B68DBB20F2B10D9103B23F0030202F1604202F564429F
:400340001168DB0003F01803E0229A400A4022FA03F306E00F2B03D1134B1B681B0E00E0002383F31188114A136801331360012B01D102F03BFB62B6FFF7ACFF72B684F3D8
:40038000118801F0F7FE094A1368013B13601BB902F035FB02F0F9FA62B6BDE819408546704700BF04ED00E020ED00E0F896FF1F38B5134B988908B319461C89631C9BB2AE
:4003C000104AA2FB03525209642505FB12330B810138888101EB44018B7B13B1012B04D006E0002002F028FA02E0012002F024FA034B03EB4404E07B02F050FA38BD00BFC3
:400400007482FF1F1F85EB5130B5ABB01B4B9B89632B17D92AAD032305F8A83D184B1868CDF80100174C0FCCCDF81100CDF81510CDF81920CDF81D30284601F00BF96FF028
:40044000070019E00D4D6C89621C92B205EB4404A073E1730C49A1FB02014909642000FB11226A8101339BB2AB81012B03D1FFF79FFF002000E000202BB030BD7482FF1FAC
:4004800084330000883300001F85EB512DE9F04180460E4617461D462A210020FFF7B4FF00210120FFF7B0FF194C94F8D6104144C9B20120FFF7A8FF00210120FFF7A4FF5E
:4004C00094F8D6103944C9B20120FFF79DFF2B210020FFF799FF00210120FFF795FF94F8D7103144C9B20120FFF78EFF00210120FFF78AFF94F8D7102944C9B20120FFF7DF
:4005000083FF2C210020FFF77FFFBDE8F08100BF7482FF1F10B5044636210020FFF774FF04F003002A4B83F8D80003284ED8DFE800F00215283BC2210120FFF765FF244B72
:40054000A022A3F8DA208022DA8093F8DC2083F8D62093F8DD2083F8D72010BDA2210120FFF752FF1A4BA022DA808022A3F8DA2093F8DC2083F8D72093F8DD2083F8D62094
:4005800010BD08210120FFF73FFF114BA022A3F8DA208022DA8093F8DC2083F8D62093F8DD2083F8D72010BD62210120FFF72CFF074BA022DA808022A3F8DA2093F8DC2091
:4005C00083F8D72093F8DD2083F8D62010BD00BF7482FF1F014BB3F8E40070477482FF1F2DE9F0411F46BDF818501F4BB3F90630834236DD90461C4AB2F8DA20914230DAA0
:4006000000EB0804013C9C4202DB1B1A0FFA83F87B18013B9A4201DC571A3FB2C0B2C9B2CB19013B00EB0802013ADBB2D2B2FFF72DFF2E0AEDB2012002F0FEF80FE0314672
:400640000220FFF7E1FE29460220FFF7DDFE013C24B200E04446002CF1DC013F3FB2002FF8DCBDE8F08100BF7482FF1F00B583B0064AB2F9DA30B2F90620009000210846D1
:40068000FFF7AEFF03B05DF804FB00BF7482FF1FF8B5364B8022DA80A022A3F8DA20002483F8D840A3F8DE40A3F8E04001251D714FF6FF72A3F8E220A3F8E4405D711C6001
:4006C00083F8DD4083F8DC4083F8D64083F8D7401C815C819C8102F01FF9284602F0A0F8642001F063F9204602F09AF8642001F05DF9284602F094F8142001F057F92946B9
:400700002046FFF781FE322001F050F911212046FFF77AFE782001F049F90F22144D14E02C4614F8021B0020FFF76EFE6A78254606E06E1C29780120FFF766FE2246354622
:40074000531EDCB2002AF4D13A46531EDFB2002AE6D10220FFF7DEFE0020FFF787FF02F051F8642002F008F8F8BD00BF7482FF1F2D2E000008B5FFF72DFFFFF777FF08BDF4
:40078000002821DB114BB3F9063098421CDA00291ADB0E4BB3F8DA30994215DA10B51446C0B2C9B24B1C421CDBB2D2B2FFF76EFE012002F041F8210A0220FFF725FEE1B288
:4007C0000220FFF721FE10BD704700BF7482FF1FF8B51E46164BB3F90630834226DD1546134BB3F8DA30994220DA0A44013A934201DC5D1A2DB2C0B2C9B24B19013BDBB261
:400800000246FFF743FE370AF6B2012002F014F808E039460220FFF7F7FD31460220FFF7F3FD25466A1E14B2002DF2D1F8BD00BF7482FF1F2DE9F04F83B005460E4617468A
:40084000BDF830200092C1EB0308B8F1000FB8BFC8F10008C0EB0709B9F1000FB8BFC9F10009C84504DD3A461F4613460D460646BD4205DD32461E4613462A463D4617465B
:40088000C5EB070B1FFA8BFB0FFA8BF4C6EB030ABAF1000FB8BFCAF1000A04EBD47464109E4202DA012301931EE04FF0FF3301931AE0C84505DD009A29463046FFF760FFBC
:4008C00004E0009A31462846FFF75AFFCAEB0404A3B21CB2002C05DA019A164436B20BEB030424B201352DB2BD42E2DD03B0BDE8F08F00BF2DE9F04F8BB002900391154631
:400900000493BDF850709DF854A07F4B1A68002A40F09080B3F906300146834240F3F180794BB3F8DA300398984280F2EA800AEB4A0253000B44012B00F1E38000EBCA03F5
:40094000012B00F1DE804FF00008894683460595049E4EE0059B03EB830343446B4A134493F8585000243EE015F0010F1BD0BAF1010F09D104EB0B0108EB0900324609B2D8
:4009800000B2FFF7FDFE2BE01FFA8AF00FFA8AF204FB00B108FB00900096134609B200B2FFF71EFE1CE0BE421AD0BAF1010F09D104EB0B0108EB09003A4609B200B2FFF76B
:4009C000DFFE0DE01FFA8AF00FFA8AF204FB00B108FB00900097134609B200B2FFF700FE013464B26D08072CBEDD08F101084FFA88F8B8F1040FADDD049BBB4200F0818055
:400A0000BAF1010F08D1029805303B460822039900B2FFF7DDFE74E01FFA8AF303EB8300029A10440097DB005246039900B2FFF7D7FD66E0137AEB1ADBB2506800EBC30150
:400A4000D2F800B030F8337091F80280CB78079391F90530089391F906200992BAF1010F04D91BB2059313B2069302E000230693059300231C46994640E05E1CF6B213F06A
:400A8000070F03D17B1C1BF807409FB214F0800F27D0BAF1010F0DD1099B039A99184944089B029A98182844049A09B200B2FFF767FE16E0059B58191FFA8AF3069A02EB7D
:400AC00009010FFA8AFE039A01FB0321029A00FB0320049B00937246734609B200B2FFF77FFD6400E4B20135EDB2334600E000254545C2D309F101095FFA89F9079A9145A0
:400B0000F5D30BB0BDE8F08F7482FF1F2C2E000070B582B04E4B1B68002B43D10A280BD14B4B0022A3F8DE201979B3F8E02002EBC102A3F8E02088E00D2800F08680444BE5
:400B40005B79ABB1424A117901EB41046300B2F8DE402344B2F90620934209DD3C4B0022A3F8DE20B3F8E02002EBC101A3F8E010374CB4F8E230B4F9E010B4F9DE50227965
:400B80000192B4F8E420009202462846FFF7B2FE237903EB43035A00B4F8DE301344A4F8DE3052E00A280CD1294A0021A2F8DE10997A1079B2F8E03000FB0133A2F8E03093
:400BC00043E00D2841D01A7A90423ED3597A88423BD8821A5C6804EBC204A278E1785AB351B394F905501A494979A9B118490E792A44B1F8DE5002FB0652B1F906108A425D
:400C00000ADD134A0021A2F8DE109B7AB2F8E01006FB0316A2F8E0600D4AB2F8E230B2F9E010B2F9DE5016790196B2F8E420009202462846FFF75EFE2179054B1879B3F809
:400C4000DE2000FB0122A3F8DE2002B070BD00BF7482FF1F10B5044602E00134FFF758FF20780028F9D110BD014678B10023A0F8CC30A0F8C830A0F8CA3003E00022CA54D7
:400C800001339BB2C72BF9D9002070476FF01300704700BF08B5FFF7E7FF08BD10B4B0F8CC40C72C15D8B0F8CA20531C9BB2A0F8CA3009788154094AA2FB03129209C821BB
:400CC00001FB1233A0F8CA300134A0F8CC40002001E06FF0070010BC704700BF1F85EB51B0F8CC30C3B1B0F8C8305A1CA0F8C820C35C0B70B0F8C830094AA2FB0312920937
:400D0000C82101FB1233A0F8C830B0F8CC30013BA0F8CC30002070476FF00800704700BF1F85EB51014678B10023A0F8CC30A0F8C830A0F8CA3003E0FF22CA5401339BB205
:400D4000C72BF9D9002070476FF01300704700BF08B5FFF7E7FF08BD10B4B0F8CC40C72C16D8B0F8CA20531C9BB2A0F8CA3091F900108154084AA2FB03129209C82101FB66
:400D80001233A0F8CA300134A0F8CC40002001E06FF0070010BC70471F85EB51B0F8CC30C3B1B0F8C8305A1CA0F8C820C3560B70B0F8C830094AA2FB03129209C82101FB52
:400DC0001233A0F8C830B0F8CC30013BA0F8CC30002070476FF00800704700BF1F85EB5138B50446CE30FFF755FF2046FFF752FF0025A4F89C5101F053FC024801F082FC43
:400E0000284638BD9833000010B50446CE30FFF72BFF2046FFF728FF002010BD10B582B0044601F059FC02A901F8010D04F1CE00FFF734FF024620B99DF80730232B00D1B6
:400E40000122B4F89C310133A4F89C31104602B010BD00BF70B582B005460E46002400E014460DF1070105F1CE00FFF739FF60B99DF80730621C3355232B01D1B05406E064
:400E8000C62AEDDD6FF0100001E06FF0100002B070BD00BF08B5FFF75BFF002008BD00BF00B583B002AB03F8011D1946FFF754FF034608B14FF0FF33184603B05DF804FB3C
:400EC00008B5FFF76BFF034608B14FF0FF33184608BD00BF08B5FFF73BFF002008BD00BF10B5044600F5497000F036FA002084F83403C4F8300384F8200310BD38B50446AD
:400F00000D46FFF7EDFFC4F83053002038BD00BF30B583B00446D0F83053284601F041FF3223009323460246294604F5497000F009F9C0B284F820030138C0B2312801D883
:400F4000002001E04FF0FF3003B030BD90F8343390F8202393420BD810B40C465A1C80F8342300EB03100FC884E80F00002002E04FF0FF30704710BC704700BF436893425C
:400F80000AD25A1C426001EB03104FF0FF33836043600023C3607047002070470170426083600023C360704770B506681DE0202C21D006D8092C0ED30A2C1CD90D2C0AD180
:400FC00019E03A2C17D002D82C2C04D113E05D2C11D07D2C0FD0203CE4B25E2C03D906606FF0010070BD013505600568954202D24C5D002CDBD11BB9013D0560002070BD7C
:4010000019460446049AFFF7B9FF18B926604FF0FF3070BD236832460821FFF7BFFF2368013B2360002070BDF8B50668741C04607AE0222D13D1002B00F0818019460446F1
:40104000069AFFF79BFF18B926604FF0FF30F8BD2368721C0421FFF7A1FF0020F8BD5C2D5FD10134A2425CD904600D5D223D532D53D8DFE805F0565252525252525252524A
:4010800052525256525252525252525252525252525252525252525252525252525252525252525252525252525252525252525256525252525256525252565252525252A0
:4010C0005252565252525652562A013404604FF0000E15E0A5F13007FFB2092F0CD9A5F14107FFB2052F07D9613DEDB2052D03D906606FF00100F8BD013404600EF1010E52
:40110000BEF1030F05DC0468A24202D90D5D002DE0D10468013C046003E006606FF00100F8BD0468013404600468944203D20D5D002D7FF47EAF06606FF00200F8BD002040
:40114000F8BD00BF2DE9F04782B00646884617461D46DDF828A0D0F80490D1E02C2C00F092800ED80D2C00F0C88004D8093C012C40F2C380ABE0202C00F0BF80222C66D0FA
:40118000A5E05D2C2DD004D83A2C78D05B2C05D09DE07B2C02D07D2C23D098E009F10109002D00F0AA80524629463046FFF7E6FE0146002800F0BF80B368B3F1FF3F04D023
:4011C00005EB0313DA680132DA607B2C01D1012300E002230B7033684B607368013BB3608BE0002D00F089807D2C01D1012400E002247368013B14E005EB03125068B0F10D
:40120000FF3F0DD09068B0F1FF3F09D11078844240F094804FF0FF30B0600131916002E0013B002BE8DAB3F1FF3F0DD189E005EB03125168B1F1FF3F05D09268B2F1FF3F2D
:4012400001D1B36059E0013B002BF0DA55E0CDF800A02B463A4641463046FFF7E5FE002876DB09F10109B368B3F1FF3F45D0002D43D005EB0313DA680132DA603DE0736842
:40128000013BB36039E0002D37D0B368B3F1FF3F33D01B01EB5C022B2FD0012B2DD07268013A11E01301E918EB5C013BDBB2012B09D84B68B3F1FF3F05D08B68B3F1FF3F63
:4012C00001D1B26019E0013A002AEBDA15E0CDF800A02B463A4641463046FFF765FE002836DB09F10109B368B3F1FF3F05D025B105EB0313DA680132DA603368013333604A
:401300003168B94204D218F80140002C7FF426AFD5B17368013B0AE005EB03125168B1F1FF3F03D09268B2F1FF3F0FD0013B002BF2DA48460CE04FF0FF3009E06FF0010068
:4013400006E06FF0010003E0484601E06FF0020002B0BDE8F08700BF0023036043604FF0FF338360704700BF38B505460C460F49204601F00CFD18B91F23A5F8A03012E040
:401380000B49204601F003FD20B94FF4FC63A5F8A03008E00749204601F0F9FC18B94FF47843A5F8A030002038BD00BFC0330000C4330000CC330000F0B4002635460CE0EC
:4013C000A4F13007082F11D805EB85056F003C44A4B2303CA5B20136F6B28C5D002CEFD102EB830220F81250002001E04FF0FF30F0BC70472DE9F041B0B080460C46002727
:401400005FE02C9B012B5CD1D4F830232A9BD35C632B1FD129A92046FFF798FDBDF8A83000220AE0511CD4F83003C05C30AD2A4402F80C0C01339BB2CAB22B998B42F1DB21
:4014400030AB1A44002302F80C3C2DA96846FFF78BFF36E0642B34D129A92046FFF776FD0026354627E029A92046FFF76FFDBDF8A83000220BE0511CD4F83003C05C0DF11D
:40148000C00E724402F80C0C01339BB2CAB22B998B42F0DB30AB1A44002302F80C3C3B462A462DA96846FFF787FFB0F1FF3F13D00135EDB20136032ED5DD7B1C8DF8A270CF
:4014C000DFB229A92046FFF741FD002899D06946404600F06FF8002030B0BDE8F08100BF08B500F08DF808BDF0B583B00546FFF741F995F8A260B5F8A07000240EE005EB65
:40150000C401B1F90630B1F90420B1F9021035F934000097FFF78EF90134E4B2B442EED9024801F0EFF8002003B0F0BDD433000010B50446FFF71EF92046FFF78BFB0020B7
:4015400010BD00BF10B50446FFF7A2F80348FFF7EFFF204600F02AF810BD00BFDC330000F0B110B404460023A0F8D43CA0F8D03CA0F8D23C10E0A42000FB03F022184FF619
:40158000FF71A2F8A010002182F8A210215251809180D18001339BB2132BECD9002002E06FF01300704710BC704700BF08B5FFF7D7FF08BD70B5B0F8D46C132E1BD80446B4
:4015C000B0F8D23C5D1CADB2A0F8D25CA420024600FB034001F0C8FB084BA3FB05231B0903EB83039A00AD1AA4F8D25C0136A4F8D46C002070BD6FF0070070BDCDCCCCCC99
:40160000B0F8D43C0BB310B50B460446B0F8D01C4A1CA0F8D02CA420024600FB0141184601F0A2FBB4F8D02C094BA3FB02131B0903EB83039900521AA4F8D02CB4F8D43C71
:40164000013BA4F8D43C002010BD6FF008007047CDCCCCCC10B50446013001F053F8064801F050F804F1110001F04CF8034801F049F8002010BD00BF1C3400000834000053
:40168000FEE700BFF0B40022174611E050F82760F3B226F0FF0608E001EB420511F812406D78A5550132013BDBB2002BF4D101371B2FEBD9F0BC7047064B1B78DBB203F095
:4016C0000701054A11701B09013213704422034B1A707047CF0100496E5800407658004008B50A46002101F04AFB08BD38B500242A4B1C80582202331A70192502331D8082
:401700001823274A137041F2BF2226490A8002310B7002310A80244A13700222234B1A7008224FF040231A70032103F5007319701F4B1B78DBB21F490B701F4B1A8041F2E3
:401740005122023B1A800CE01C4B1B7803F0010343EA440404F003044FF4F07001F0F8F8013D0DB1032CEFD115B90320FFF788FF134B4FF480721A8007221A700022114999
:401780000A704820023108701A700222033B1A700D4A137843F00F03137038BD8040004086400040884000408E4000400043004008010049A1460040224200402542004024
:4017C0000440004006400040A243004008B501F0CBFA08BD38B572B6334A137843F00403137000240CE0314D630019194A0011462A44084691882858FFF772FF0134E4B25D
:401800000A2CF0D900240CE02848A20011194B000344B3F84C20996C586CFFF7D7FF0134E4B2012CF0D922494FF09040FFF72AFF204A137843F0020313701032137843F015
:40184000020313701C4C237843F040032370A2F58632513A137843F0100313700A2217491748FFF7B3FF082216491748FFF7AEFF082216491648FFF7A9FF164A137843F0E5
:4018800008031370144D61232B70FFF72FFF81232B700122114B1A70FFF70EFF0E2221460F48FFF793FF38BDE8460040203400007000004803500140A0430040340600488D
:4018C000C051004040060048125100404806004832510040224300400048004004000840B043004008B501F013FA03680C2B00D1FEE7FEE708B5104E104D16E029686B6897
:40190000AC68002204E051F8040B43F8040B0432A242F8D1E868002203E0002143F8041B04328242F9D11035013E002EE6D101F0F5F9FEF7F9FBFEE701000000CC3600005B
:4019400008B5104A104B1A60104A136843F40073136000230AE0032B03D80D4A52F8231000E00C490C4A42F8231001332F2BF2D90A4B1A780A4B1A70074A0A4B1A60FFF772
:4019800029FF08BD0004FA050CED00E014ED00E000000000E51800000080FF1FBC760040C080FF1F08ED00E001BE704710B5044605E0084B186800F0CBFFA4F50044B4F5C0
:4019C000004FF6D8034B586800FB04F000F0C0FF10BD00BFCC80FF1F38B504460D46072902D90020FFF7E0FF1F2C02D90020FFF7DBFF04F01F0000F1604000F564406D01DD
:401A0000EDB2057038BD00BF38B5EFF3108572B602284ED82D4B53F82030002B4BD02B4A013B42F820302A4B53F82030032B07D10222274B43F820200022264B43F8202039
:401A400000F05CFC244B1B68002B36D1234B1C6800F032FCB0F1FF3F31D0214B53F82020204B1B689A422CD9B4F1FF3F03D00221174A42F824101C4A52F820201343194AF3
:401A800013600022124B43F8202000F0D1FB174B53F820304BB10024144B43F8204040F0004000F0B5FF20460CE000F0B1FF002008E0032006E0042004E0002002E00020A5
:401AC00000E0002085F3108838BD00BF2081FF1FBC81FF1F7C83FF1FF896FF1FAC81FF1FF43500009083FF1FD83500006483FF1F18B108B5C368984708BD704708B508B106
:401B0000406800E00020022816D80C4B53F8203093B10A4A013B42F82030094B53F82030032B07D10222064B43F820200022054B43F8202000F0E2FB08BD00BF2081FF1FB3
:401B4000BC81FF1F7C83FF1F18B1034640689B6801E00023184602281DD80F4A52F82020CAB10E4A52F82010032914D010B50C4C54F820201A4344F820200A4A52F820200F
:401B8000134207D0012905D10222044B43F8202000F0B4FB10BD7047C0350000BC81FF1F7C83FF1F7083FF1F80B108B50378012B06D013B1032B06D008BDFFF79FFF08BD19
:401BC000FFF7C2FF08BDFFF793FF08BD704700BF30B400EB40029300214AD258214B03EBC2035C68B4F1FF3F04D11E4B03EBC20250602DE01C4B03EB04139B6899420AD2D4
:401C0000184D05EBC2025060174A02EB04125B1A93601DE01C46144B03EB04139A68891ADB68B3F1FF3F05D00F4A02EB031292689142EFD2B3F1FF3F05D00B4A02EB0312B6
:401C400095686D1A9560084A02EB0414E0601C46054B03EB00108160C46030BC704700BF98350000E080FF1FE89EFF1F38B5394A02EBC0035C6852F83030013342F83030F2
:401C800000EB40018A0034498A58934203D90022304B43F83020B4F1FF3F59D02F4B03EB04139B68002B4ED1214600E019462B4B03EB0113DB68B3F1FF3F05D0274A02EBE8
:401CC00003129268002AF1D0244A02EB01114FF0FF32CA601F4A02EBC0004360B3F1FF3F07D01E4A02EB03139A68013A9A6000E02C4604EB44029300194A13441B7A7BB932
:401D000004EB44029300164A13445A68154B53F8223003EB83039A0013481044FFF744FF0E4B03EB0413DD68596821B101392046FFF74EFF03E024010022084B1A51B5F1C8
:401D4000FF3FD5D138BD054A02EB0414013BA36038BD00BFE080FF1FAC350000E89EFF1F98350000A83500008435000038B5EFF3108572B6002838D1FFF778FF204B1B68C5
:401D8000002B34D11F4B1C6800F096FAB0F1FF3F2FD01D4B53F820201C4B1B689A422AD9B4F1FF3F03D00221194A42F82410194A52F820201343154A13600022144B43F870
:401DC000202000F035FA144B53F820304BB10024114B43F8204040F0004000F019FE20460AE000F015FE002006E0032004E0002002E0002000E0002085F3108838BD00BFB6
:401E0000F896FF1FAC81FF1FF43500009083FF1FBC81FF1FD83500006483FF1FEFF3108372B6114A1168114A126882B9B1F1FF3F0FD00F4A52F821206AB110B40D4C54F83C
:401E4000212022EA000044F82100002007E0022002E0022000E0012083F31088704783F3108810BC704700BFAC81FF1FF896FF1FC03500007C83FF1F02280FD80B4B53F8BA
:401E800020306BB10A4B53F82030032B0AD059B1084B53F820300B60002070470320704701207047072070470E207047C0350000BC81FF1F7C83FF1F38B5EFF3108472B617
:401EC000022853D8324B53F82030002B50D0314B53F82030032B4DD02F4D55F820200A4345F820202D4A52F82020114244D0012B44D10222274B43F8202000F0FFF9284BE0
:401F00001B68002B3CD1274B1D6800F0D5F9B0F1FF3F37D0244B53F82020244B1B689A4232D9B5F1FF3F03D002211A4A42F825101F4A52F8202013431C4A13600022154B27
:401F400043F8202000F074F91A4B53F820304BB10025184B43F8205040F0004000F058FD284612E000F054FD00200EE003200CE001200AE0072008E0002006E0002004E0C3
:401F8000002002E0002000E0002084F3108838BDC0350000BC81FF1F7C83FF1F7083FF1FF896FF1FAC81FF1FF43500009083FF1FD83500006483FF1F38B5EFF3108472B68F
:401FC0003A4B1D683A4B1B68002B63D1B5F1FF3F62D0384B53F82530B3F1FF3F5ED1364B53F82530002B5BD0344B53F82530034258D1334B43F825000122324B43F8252024
:40200000314B53F8250031490B6823EA00030B602F4B43F825202F4B53F82520234B1A6000F04AF9B0F1FF3F06D02B4B53F82020264B1B689A420DD81C4B1868B0F1FF3FFC
:4020400003D000221F4B43F8202040F0004000F0DFFC1AE000211B4A42F820101A4A52F820201343194A136000F0E2F8184B53F8203043B10022164B43F8202040F000401D
:4020800000F0C6FC01E000F0C3FC00200C4B43F8250008E0022006E0022004E0062002E0012000E0002084F3108838BDAC81FF1FF896FF1FF080FF1FC03500007C83FF1F4D
:4020C0007083FF1FBC81FF1FD83500009083FF1F6483FF1FB081FF1FF435000008B500F0A7F8084B53F8203043B10022054B43F8202040F00040044B186008BD024B1860DD
:4021000008BD00BF6483FF1FFC96FF1F10B500F0D3F8124B1B68B0F1FF3F1AD0104A52F82010104A1268914213D9B3F1FF3F03D002240D4941F8234000210B4B43F8201027
:402140000A4B53F820301A43064B1A60FFF7C6FF10BD43F00043064A136010BDAC81FF1FF43500009083FF1FBC81FF1FD8350000FC96FF1F034B1B6813B10022014B1A607F
:40218000704700BFEC96FF1F204B1A68204B1968EFF3108372B6012829D830B41D4C54F8204044BB51B9B2F1FF3F26D01A4C54F822501A4C54F82040A54220D809BB184956
:4021C00051F82250174C44F8205041F822000121104A42F8201014490C68144A42F820400E4A52F8202022430A6000200AE0032083F310887047012004E0012002E001203F
:4022000000E0012083F3108830BC7047AC81FF1FF896FF1F5C83FF1FF4350000B8350000F080FF1FE880FF1F9083FF1FF89EFF1FF0B4184B19880B0A174AD356B3F1FF3FC0
:4022400001D1535601E008335BB2144D55F82320134850F82200134E56F8224045F82340114D2F6846F822702A60B4F1FF3F09D10E4A42F82340012202FA03F321EA03012E
:40228000044B19800A4B19680A4A42F820101860F0BC70478C83FF1F783400006C81FF1FD09EFF1F0881FF1F8883FF1F2C81FF1FAC81FF1FB081FF1F0C4B1A88130A0C49B7
:4022C000CB56B3F1FF3F01D18B5601E008335BB2B3F1FF3F06D0074A52F82320064B53F8220070474FF0FF30704700BF8C83FF1F783400006C81FF1FD09EFF1F30B4144B5D
:4023000053F82020134C2368134951F823502560124C44F823004FF0FF3441F82340104951F82210A1420AD10E4951F820400E480188214301800D4941F8223002E0064859
:4023400040F82130064941F8223030BC704700BF1481FF1F8883FF1F0881FF1FD09EFF1F2C81FF1FF43500008C83FF1F6C81FF1F10B150F8210070474FF0FF30704700BF98
:402380000122014B1A60FEE7F496FF1F70B50546124B53F8306000241CE0104B03EBC50321465868FFF7E4FF0D4A52F82030013B42F820300B4B53F82030032B07D10222FC
:4023C000084B43F820200022074B43F82020FFF795FF0134B442E0D370BD00BF783500002081FF1FBC81FF1F7C83FF1F18B908B5FFF7CCFF08BD7047194B1A4ADA621A4AB5
:402400009A631A4ADA63EFF3108272B6184B1B6813BB10B5044600F0EFF8164B1C600122134B1A602046FFF7E1FFFFF745FFB0F1FF3F0ED0104B53F82030104A11680B43A6
:40244000136000220E4B43F82020FFF7F1FE00F0DFFA62B6FFF794FF82F31088072070470080FF1FD12900009529000091000000F496FF1F009FFF1FD83500009083FF1F2F
:40248000BC81FF1F08B5EFF3108272B60D4B19680D4B1B6863B90D4B53F82130B3F1FF3F08D14FF0FF300A4B43F82100002002E0022000E0062010B9084600F002FB82F327
:4024C000108808BDAC81FF1FF896FF1FF080FF1FFC80FF1F70B53C4B1A683C4B1B68EFF3108572B601285BD8394951F82010002958D0384951F82210884255D153B9B2F146
:40250000FF3F53D0344C54F82260344C54F82040A6424DD8002B4DD1314C54F821402D4941F8224000212A4A42F820102D4A52F820102D4A1160002B3ED1234B1C68FFF735
:40254000BBFEB0F1FF3F39D0234B53F82030264A1268934234D9B4F1FF3F03D00221234B43F82410224B53F8203013431E4A136000221E4B43F82020FFF75AFE1D4B53F8EF
:4025800020304BB100241B4B43F8204040F0004000F03EFA204614E000F03AFA002010E003200EE005200CE005200AE0012008E0012006E0012004E0002002E0002000E03C
:4025C000002085F3108870BDAC81FF1FF896FF1F5C83FF1FF080FF1FF4350000B8350000E880FF1FF89EFF1F9083FF1FBC81FF1FD83500006483FF1F38B50D4B1D68EFF362
:40260000108472B600F0B4F90A4A136843F07F431360094B2B6401210020FFF7DDF9074A136843F00103136084F3108838BD00BF08ED00E020ED00E01903000000E100E041
:402640007622084B1A70202201331A700E22A3F5B0731A708F2210331A70022203F251131A7070478965004010B500F079F904460A4A137843F0200313700132137843F0EC
:40268000100313700132137843F01003137000F04BF8204600F068F910BD00BF9965004008B5054B1B7823B9FFF7CAFF0122024B1A70FFF7D9FF08BD9883FF1F014B18786C
:4026C000704700BF4A650040024B187800F07F00704700BF6A65004010B5FFF7F5FF0402FFF7ECFF204380B210BD00BF034B1B7813F0040FFAD1024B187070476B6500408F
:402700004864004038B5074B1B782BB938BDFFF7EDFF0134A4B201E005460024285D0028F5D138BD9883FF1F054A137843F0020313701032137843F002031370704700BF11
:40274000A2430040084A137843F0010313701032137843F00103137002F64D32137843F001031370704700BFA3430040014B1880704700BF044F0040014B1880704700BF77
:40278000064F0040014B1870704700BF034F004008B5194A137843F0020313700232137803F08F0343F010031370144B1A7802F0CF021A701A7842F030021A701A7802F0F3
:4027C000F0021A701A7842F00F021A706420FFF7CDFF0020FFF7D0FF0020FFF7D3FF084A137843F00103137002F65E32137843F00103137008BD00BF004F00400B4F0040DA
:40280000A343004008B5054B1B7823B9FFF7C0FF0122024B1A70FFF795FF08BD9A83FF1F044A137803F0EF03000100F0100018431070704730510040044A137803F0F703E5
:40284000C00000F00800184310707047C051004008B500F085F80A4A137843F020031370023A137843F010031370013A137843F01003137000F078F800F05CF808BD00BF94
:402880009B640040014B1878704700BF69640040014B1878704700BF68640040034B1B7813F0040FFAD0024B18707047696400404964004008B501E00A4B1B780A4B1B7867
:4028C00013F0200FF8D100F04BF8084B1A7842F001021A701A7802F0FE021A7000F044F808BD00BF59640040686400409964004008B50F22064B1A70FFF7DCFFFFF7C2FFB1
:40290000FFF7C6FF0023034A1370013A137008BD8B6400408964004008B5054B1B7823B9FFF7E6FF0122024B1A70FFF791FF08BD9B83FF1F054A137843F00103137010325C
:40294000137843F001031370704700BFA24300400230800803D000BF01380046FCD17047EFF3108072B6704780F31088704700BF18484FF47F0102680A43026016486FF05D
:402980007F4102680A400260704714484FF080510160704772B611484FF000610160FFF7B5FB0F48006800F0F3F858B10C4800684FF080730B4A0C490FB40FB46FF00600B8
:4029C000004700BF6FF0060062B6004762B600DF08B0704720ED00E01CED00E004ED00E0FC96FF1F112A0000CD290000EFF30880054908600548006880F308887047024846
:402A0000006880F308887047F081FF1FE481FF1F411C8900154A11440968154A136899421AD0F0B444464D4656465F46F0B400B5104C9B002344EFF308851D601160890019
:402A40002144096881F3088802BC8E46F0BCA046A946B246BB46F0BC002806DB00B500F08BF802BC8E46FFF7D3BF7047183600009483FF1FE881FF1FF0B444464D4656465B
:402A80005F46F0B400B5EFF3038308B48000174901440968164A0244EFF30883136088471448804704BC4FF08070024382F3038801BC8646F0BCA046A946B246BB46F0BC03
:402AC000704780000A4901440A6882F3088804BC4FF08070024382F3038808BC9E46F0BCA046A946B246BB46F0BC704700360000DC9EFF1FF92A000010B572B6034B1C6827
:402B0000204600F00DF82046FFF7DBFFAC81FF1F08B5024B1868FFF7AFFF08BDAC81FF1F10B4104B53F820304FF0FF310BE00E4A52F823200B4941F8202000240B4941F804
:402B4000234019461346B3F1FF3FF0D1B1F1FF3F04D0074B53F82120064B1A60084610BC704700BFF080FF1FE880FF1F5C83FF1FF89EFF1F9083FF1F08B562B6FFF7C8FF22
:402B800072B600F041F8014B186808BDFC96FF1F00280BDA20F000400130054B53F82000044B1B68181A18BF0120704701207047183600009483FF1F054B53F82020054B01
:402BC00053F820309A4201D101207047002070472081FF1FCC35000008B5FFF729FB084B53F8203043B10022054B43F8202040F00040044B186008BD024B186008BD00BF32
:402C00006483FF1FFC96FF1F38B5364B1C680022354B1A60354A52F82430013342F82430334B53F824502046FFF7C6FF012801D0A54204D103222F4B43F8242003E00222B9
:402C40002C4B43F824202C4B53F824102B4A136823EA010313602A4B53F82440214B1C60B5F1FF3F0FD0234B53F82530032B07D10222204B43F825200022224B43F82520F3
:402C80002846FFF73BFBFFF717FBB0F1FF3F0BD1B4F1FF3F03D00022164B43F8242044F00044194B1C6038BD184B53F82020134B1B689A4208D800220E4B43F8242044F0F9
:402CC0000044114B1C6038BD00210A4A42F82010094A52F820201343084A1360FFF77CFF38BD00BFAC81FF1FEC96FF1F2081FF1FFC80FF1FBC81FF1FD83500009083FF1FEA
:402D0000B081FF1F7C83FF1FFC96FF1FF4350000014B1868704700BF5482FF1F0E4B70B51E460E4C0025E41AA410A54204D056F8253098470135F8E700F0B6FC084B094C69
:402D40001E46E41AA4100025A54204D056F8253098470135F8E770BDB4360000B4360000B4360000BC36000010B5431E0A44914204D011F8014B03F8014FF8E710BD034639
:402D80000244934202D003F8011BFAE7704710F8012B11F8013B012A28BF9A42F7D0D01A7047034613F8012B002AFBD1181A0138704700000000000053797374656D204F1C
:402DC0007665726C6F61642E20526573657474696E67207065726970686572616C730A00496E76616C696420636F6F7264696E617465730A00000000496E76616C696420A7
:402E00004A534F4E207061636B65740A0000000053797374656D204F7665726C6F61642E20526573657474696E670A000FB103053C3CB203053C3CB306053C3C053C3CB4EF
:402E40000103C003280804C101C0C2020D00C3028D2AC4028DEEC5011A3601C0E0100422070A2E30252A28262E3A00010313E10F16060D2D26232727252D3B000104133A13
:402E80000105290000000000003E5B4F5B3E3E6B4F6B3E1C3E7C3E1C183C7E3C181C577D571C1C5E7F5E1C00183C1800FFE7C3E7FF0018241800FFE7DBE7FF30483A060ED9
:402EC0002629792926407F050507407F05253F5A3CE73C5A7F3E1C1C08081C1C3E7F14227F22145F5F005F5F06097F017F006689956A606060606094A2FFA29408047E047A
:402F00000810207E201008082A1C08081C2A08081E101010100C1E0C1E0C30383E3830060E3E0E06000000000000005F00000007000700147F147F14242A7F2A12231308CF
:402F4000646236495620500008070300001C2241000041221C002A1C7F1C2A08083E080800807030000808080808000060600020100804023E5149453E00427F4000724970
:402F80004949462141494D331814127F1027454545393C4A49493141211109073649494936464949291E0000140000004034000000081422411414141414004122140802F4
:402FC000015909063E415D594E7C1211127C7F494949363E414141227F4141413E7F494949417F090909013E414151737F0808087F00417F41002040413F017F08142241D5
:403000007F404040407F021C027F7F0408107F3E4141413E7F090909063E4151215E7F09192946264949493203017F01033F4040403F1F2040201F3F4038403F631408141C
:403040006303047804036159494D43007F4141410204081020004141417F04020102044040404040000307080020545478407F284444383844444428384444287F38545459
:40308000541800087E090218A4A49C787F0804047800447D40002040403D007F1028440000417F40007C047804787C080404783844444438FC1824241818242418FC7C089F
:4030C000040408485454542404043F44243C4040207C1C2040201C3C4030403C44281028444C9090907C4464544C4400083641000000770000004136080002010204023CC9
:403100002623263C1EA1A161123A4040207A385454555921555579412254547842215554784020545579400C1E5272123955555559395454545939555454580000457C4173
:403140000002457D420001457C407D1211127DF0282528F07C545545002054547C547C0A097F4932494949323A4444443A324A4848303A4141217A3A42402078009DA0A027
:403180007D3D4242423D3D4040403D3C24FF2424487E4943662B2FFC2F2BFF0929F620C0887E090320545479410000447D413048484A32384040227A007A0A0A727D0D1939
:4031C000317D2629292F28262929292630484D4020380808080808080808382F10C8ACBA2F102834FA00007B000008142A142222142A14085500550055AA55AA55AAFF5546
:40320000FF55FF000000FF00101010FF00141414FF001010FF00FF1010F010F0141414FC001414F700FF0000FF00FF1414F404FC141417101F10101F101F1414141F0010ED
:403240001010F0000000001F101010101F10101010F010000000FF101010101010101010FF10000000FF140000FF00FF00001F10170000FC04F414141710171414F404F41D
:403280000000FF00F714141414141414F700F7141414171410101F101F141414F4141010F010F000001F101F0000001F14000000FC140000F010F01010FF10FF141414FF8B
:4032C000141010101F00000000F010FFFFFFFFFFF0F0F0F0F0FFFFFF0000000000FFFF0F0F0F0F0F3844443844FC4A4A4A347E02020606027E027E0263554941633844443B
:403300003C04407E201E2006027E020299A5E7A5991C2A492A1C4C7201724C304A4D4D303048784830BC625A463D3E494949007E0101017E2A2A2A2A2A44445F4444405161
:403340004A444040444A51400000FF0103E080FF000008086B6B083612362436060F090F06000018180000001010003040FF0101001F01011E00191D1712003C3C3C3C0076
:403380000000000054465400427566666572206F766572666C6F77005541525420697320726561647920746F2072656365697665204A534F4E207061636B6574730A00004F
:4033C00072656400677265656E000000626C756500000000447261776E0A00005446542069732072656164792E0A0A53656E64204A534F4E207061636B6574732076696123
:4034000055415254000000000A00000055415254207374617274656400000000203A2000004F00400C00005100401000205100401000405100403000F051004010000000EA
:403440000140800800090140000700140140000800400140000A004C01400002005001402000000060520040AC050048060080080140B40500488000FF00010102020202C6
:4034800003030303030303030404040404040404040404040404040405050505050505050505050505050505050505050505050505050505050505050606060606060606E4
:4034C0000606060606060606060606060606060606060606060606060606060606060606060606060606060606060606060606060606060606060606070707070707070744
:4035000007070707070707070707070707070707070707070707070707070707070707070707070707070707070707070707070707070707070707070707070707070707CB
:40354000070707070707070707070707070707070707070707070707070707070707070707070707070707070707070707070707070707070707070701000000803500000D
:403580000000000000000000000000000000000000000000FFFFFFFF00000000000000000000000000000000000000001027000000000000000000001000000010000000B8
:4035C000000000000000000001000000010000000100000001000000800000000200000010000000010000000200000000000000010000000100000002000000100000001E
:4036000051010000A9010000AD010000112B0000112B0000112B000000000000000000000000000001000000616C726D5F64756D6D79000065765F63656E7472616C457616
:40364000656E740065765F6A736F6E5061727365000000007265735F62756666657200007265735F64726177696E6742756666657200000074736B5F6175746F0000000098
:4036800074736B5F6261636B67726F756E64000074736B5F68616E646C654576656E74730000000043000000F8B500BFF8BC08BC9E4670474D00000041190000F8B500BFD2
:4036C000F8BC08BC9E46704729000000E0360000C880FF1F90010000B01E000000000000000000000000E02EC05D00001800000000366E012836000000000000FFFFFFFF71
:40370000FFFFFFFFFFFFFFFFFFFFFFFFFFFFFFFFFFFFFFFFFFFFFFFFFFFFFFFFFFFFFFFF0100000002000000FFFFFFFF0000000001000000040000000100000001000000A3
:4037400001000000FFFFFFFFFFFFFFFFFFFFFFFFFFFFFFFFFFFFFFFFFFFFFFFFFFFFFFFFFFFFFFFFFFFFFFFFFFFFFFFFFFFFFFFFFFFFFFFFFFFFFFFFFFFFFFFFFFFFFFFF84
:40378000FFFFFFFFFFFFFFFFFFFFFFFFFFFFFFFFFFFFFFFFFFFFFFFFFFFFFFFFFFFFFFFFFFFFFFFFFFFFFFFFFFFFFFFFFFFFFFFFFFFFFFFFFFFFFFFFFFFFFFFFFFFFFFFF49
:4037C000FFFFFFFFFFFFFFFFFFFFFFFFFFFFFFFFFFFFFFFF0300000003000000030000003436000044360000543600006036000074360000803600009036000004A1FF1FE7
:4038000000000000A89EFF1F000000000000000000000000000000000000000000000000000000000000000000000000A4360000000000000000000000000000000000004A
:403840000000000000000000000000000000000000000000000000000000000000000000000000000000000000000000F481FF1F00000000000000000000000000000000B5
:403880000000000000000000000000000000000000000000000000000000000000000000000000000000000000000000000000000000000000000000000000000000000008
:4038C00000000000000000000000000000000000000000000000000000000000000000000000000000000000000000000000000000000000000000000000000000000000C8
:403900000000000000000000000000000000000000000000000000000000000000000000000000000000000000000000000000000000000000000000000000000000000087
:403940000000000000000000000000000000000000000000000000000000000000000000000000000000000000000000000000000000000000000000000000000000000047
:020000040003F7
:0200000480007A
:40000000024F0040016400400465004004060140020701403108014044090140660A01403D0B0140011501405918014040190140641A01404E1B01400240014001410140F8
:400040000342014008430140044401400245014003460140014701400148014003490140034C0140094D0140045001400151014001200A278B0F880D89768A388B0FB8024E
:40008000BE01D804DF011A808240003302040503070408400A150D050F0A14331504160C170918031A141D0E1E08280A2A343010310F320F3660388039023A083E0140367E
:4000C0004104450C46B0470E481949FF4AFF4BFF4EF04F44500C5440580459045A045B045C015D015F0166C06A406B020008038004210A900E110F08101011201302152237
:4001000016401A881E911F8820092111221023122780281029082B803290330C362837A0382139183C444054470649064A084D104E204F08521453025514580259045A407B
:400140005B106140669067209074924093209710980299489D029E04A208A702AB10C05CC2ECC44ECA03CC5ECE57D0C7D224D60FD878E80400600407053306380744080121
:400180000C840D180F02108411C113381480159C16041703180419181B021C0A1D1A1E10211A24842518285629022A092B182C042D822E803008310F328033E0347F351356
:4001C000360238203B0A3E454006450449FF4A0F4BFF4C404D204EF04F055008580459045A045D015F01604061A86240632080128264841085238660870C8A808C4D8D0505
:400200008E808F3A9002920D948D95099640973698CD9B109CCD9D029F0DA0CDA472A608A801AA32B00FB270B330B480B70FBA0ABB80BE10D602D720D804D904DB04DF0108
:400240000084012205040604078109010A120B080C200E9210201140120815281702181019601A401D041E801F1420442114220923802680271029042A012B0A30203209FD
:40028000334036883710380439403C4449084B10501062C066406C206D426E126F4974407601770281208C12C0FFC2FFC477CA0FCC7FCE5AD204D810E401E60205021304B7
:4002C00014011A0327042F01300131013202330435023F144050410645D14620480B49FF4AFF4BFF4DA04F04501852805405580459045A045B045C335D335F01604062C00E
:400300006440654066C068C06AC06CC06EC0818084F38567860C871889088A738CFF8D10908C917F9273942297049A0C9C8F9D049E70A011A15CA321A433A580A718A8047C
:40034000AB23AC08AD7CAF02B030B11FB280B338B40FB5C0B64CB920BAA0BB02BE04D602D712D804D904DB04DC11DD10DF010004030A08810A020B640E200F081010114288
:4003800012011310140415201604180419061A021E602114220823442607270828812A042B082E802F20310833823601380639403B103D0C4D014E024F28573059045D01DB
:4003C0005E486A146B4170117310768095089A409B20A104A240A680AA84B204B712C007C26FC40FCA5FCC8BCE4FD230D6D20003071109020C010E021304140116021801F5
:400400001A021B101D022302270828012A022B042F023102320333013504371839023A023F50402341044206440546EC480C49FF4AFF4BFF4C624DA04EF04F41500C541858
:400440005604580459045A045B045C115D115F016640670269106A306B106D106E106F12804F823085E38640871C882A89E38A158B1C8C308E0C91E0931C94439525963CC9
:4004800097DA987399489A0C9B259D1F9E809FE0A055A22AA592A725A873A903AA0CABFCB2C0B43FB7FFBF40D401D804D904DB04DC01DD10DF010341051407410A140C0434
:4004C0000D800E0410041510170218101A801B0A1D141F1020022108220123042580289129042A102C042F1031103241350436103741380839203D103E144014411043022E
:4005000048014A08529059025C025E805F286240634487408A108B808C048D018F02900492149720988799029A409B699C10A248A509A680A78AAC02AD04B410B601C0F905
:40054000C2E6C452CA6FCCFDCE66D007D20CD6F1D80D3220CC10A6205308A620D4201B086B408340A620A708C610DC20E68072207740DC01DE049E209F4083409E209F40DA
:40058000AA20A6208620A620E640A001B001E80110401220740188408E20A001C408DE04E20900030C03100A1C0A0003A0840000400000000961100E1C0002800000002335
:4005C000000000002000030010610C16005C0003000000800C00111C1000000814000000000000001F800060200F001A000800A0000010054602300000BEF0CD3BFFFFFFD1
:400600002200F008040000000900000004040404110000010000C00040011011C00100114001400100000000000000000000000000000000800040BCBC00B400000000000F
:40064000000B0B000000000000181800080000000000000000000000000000000000000000000000000000000000000000000000000000000000000000000000000000002C
:40068000000000000000000000000000000000000000000000000000000000000000000000000000000000000000000000000000000000000000000000000000000000003A
:4006C00000000000000000000000000000000000000000000000000000000000000000000000000000000000000000000000000000000000000000000000000000000000FA
:4007000000000000000000000000000000000000000000000000000000000000000000000000000000000000000000000000000000000000000000000000000000000000B9
:400740000000000000000000000000000000000000000000000000000000000000000000000000000000000000000000000000000000000000000000000000000000000079
:0200000490006A
:0400000000004005B7
:0200000490105A
:04000000BC90ACAF55
:0200000490303A
:02000000FA9173
:0200000490402A
:4000000000000000000000000000000000000000000000000000000000000000000000000000000000000000000000000000000000000000000000000000000000000000C0
:400040000000000000000000000000000000000000000000000000000000000000000000000000000000000000000000000000000000000000000000000000000000000080
:400080000000000000000000000000000000000000000000000000000000000000000000000000000000000000000000000000000000000000000000000000000000000040
:4000C0000000000000000000000000000000000000000000000000000000000000000000000000000000000000000000000000000000000000000000000000000000000000
:0200000490501A
:0C00000000012E16106900012E2D0AFAD6
:00000001FF